{
  "_format": "hh-sol-artifact-1",
  "contractName": "LinkCrypt",
  "sourceName": "contracts/LinkCrypt.sol",
  "abi": [
    {
      "anonymous": false,
      "inputs": [
        {
          "indexed": false,
          "internalType": "address",
          "name": "sender",
          "type": "address"
        },
        {
          "indexed": false,
          "internalType": "string",
          "name": "link",
          "type": "string"
        },
        {
          "indexed": false,
          "internalType": "string",
          "name": "originator",
          "type": "string"
        },
        {
          "indexed": false,
          "internalType": "string",
          "name": "source",
          "type": "string"
        },
        {
          "indexed": false,
          "internalType": "string",
          "name": "message",
          "type": "string"
        },
        {
          "indexed": false,
          "internalType": "uint256",
          "name": "timestamp",
          "type": "uint256"
        },
        {
          "indexed": false,
          "internalType": "string",
          "name": "keyword",
          "type": "string"
        }
      ],
      "name": "Transfer",
      "type": "event"
    },
    {
      "inputs": [
        {
          "internalType": "string",
          "name": "link",
          "type": "string"
        },
        {
          "internalType": "string",
          "name": "originator",
          "type": "string"
        },
        {
          "internalType": "string",
          "name": "source",
          "type": "string"
        },
        {
          "internalType": "string",
          "name": "message",
          "type": "string"
        },
        {
          "internalType": "string",
          "name": "keyword",
          "type": "string"
        }
      ],
      "name": "addToBlockchain",
      "outputs": [],
      "stateMutability": "nonpayable",
      "type": "function"
    },
    {
      "inputs": [],
      "name": "getAllTransactions",
      "outputs": [
        {
          "components": [
            {
              "internalType": "address",
              "name": "sender",
              "type": "address"
            },
            {
              "internalType": "string",
              "name": "link",
              "type": "string"
            },
            {
              "internalType": "string",
              "name": "originator",
              "type": "string"
            },
            {
              "internalType": "string",
              "name": "source",
              "type": "string"
            },
            {
              "internalType": "string",
              "name": "message",
              "type": "string"
            },
            {
              "internalType": "uint256",
              "name": "timestamp",
              "type": "uint256"
            },
            {
              "internalType": "string",
              "name": "keyword",
              "type": "string"
            }
          ],
          "internalType": "struct LinkCrypt.TransferStruct[]",
          "name": "",
          "type": "tuple[]"
        }
      ],
      "stateMutability": "view",
      "type": "function"
    },
    {
      "inputs": [],
      "name": "getTransactionCount",
      "outputs": [
        {
          "internalType": "uint256",
          "name": "",
          "type": "uint256"
        }
      ],
      "stateMutability": "view",
      "type": "function"
    }
  ],
  "bytecode": "0x608060405234801561001057600080fd5b50610d54806100206000396000f3fe608060405234801561001057600080fd5b50600436106100415760003560e01c806327506f53146100465780632e7700f0146100645780633f9471cf14610082575b600080fd5b61004e61009e565b60405161005b9190610a76565b60405180910390f35b61006c610437565b6040516100799190610a98565b60405180910390f35b61009c60048036038101906100979190610706565b610440565b005b60606001805480602002602001604051908101604052809291908181526020016000905b8282101561042e57838290600052602060002090600702016040518060e00160405290816000820160009054906101000a900473ffffffffffffffffffffffffffffffffffffffff1673ffffffffffffffffffffffffffffffffffffffff1673ffffffffffffffffffffffffffffffffffffffff16815260200160018201805461014b90610c4e565b80601f016020809104026020016040519081016040528092919081815260200182805461017790610c4e565b80156101c45780601f10610199576101008083540402835291602001916101c4565b820191906000526020600020905b8154815290600101906020018083116101a757829003601f168201915b505050505081526020016002820180546101dd90610c4e565b80601f016020809104026020016040519081016040528092919081815260200182805461020990610c4e565b80156102565780601f1061022b57610100808354040283529160200191610256565b820191906000526020600020905b81548152906001019060200180831161023957829003601f168201915b5050505050815260200160038201805461026f90610c4e565b80601f016020809104026020016040519081016040528092919081815260200182805461029b90610c4e565b80156102e85780601f106102bd576101008083540402835291602001916102e8565b820191906000526020600020905b8154815290600101906020018083116102cb57829003601f168201915b5050505050815260200160048201805461030190610c4e565b80601f016020809104026020016040519081016040528092919081815260200182805461032d90610c4e565b801561037a5780601f1061034f5761010080835404028352916020019161037a565b820191906000526020600020905b81548152906001019060200180831161035d57829003601f168201915b505050505081526020016005820154815260200160068201805461039d90610c4e565b80601f01602080910402602001604051908101604052809291908181526020018280546103c990610c4e565b80156104165780601f106103eb57610100808354040283529160200191610416565b820191906000526020600020905b8154815290600101906020018083116103f957829003601f168201915b505050505081525050815260200190600101906100c2565b50505050905090565b60008054905090565b60016000808282546104529190610b7a565b9250508190555060016040518060e001604052803373ffffffffffffffffffffffffffffffffffffffff16815260200187815260200186815260200185815260200184815260200142815260200183815250908060018154018082558091505060019003906000526020600020906007020160009091909190915060008201518160000160006101000a81548173ffffffffffffffffffffffffffffffffffffffff021916908373ffffffffffffffffffffffffffffffffffffffff16021790555060208201518160010190805190602001906105309291906105fb565b50604082015181600201908051906020019061054d9291906105fb565b50606082015181600301908051906020019061056a9291906105fb565b5060808201518160040190805190602001906105879291906105fb565b5060a0820151816005015560c08201518160060190805190602001906105ae9291906105fb565b5050507fffdc09cd39289f655426910bd4faec6c109aafd81e41d4d76a05199b55e68873338686868642876040516105ec97969594939291906109e4565b60405180910390a15050505050565b82805461060790610c4e565b90600052602060002090601f0160209004810192826106295760008555610670565b82601f1061064257805160ff1916838001178555610670565b82800160010185558215610670579182015b8281111561066f578251825591602001919060010190610654565b5b50905061067d9190610681565b5090565b5b8082111561069a576000816000905550600101610682565b5090565b60006106b16106ac84610ae4565b610ab3565b9050828152602081018484840111156106c957600080fd5b6106d4848285610c0c565b509392505050565b600082601f8301126106ed57600080fd5b81356106fd84826020860161069e565b91505092915050565b600080600080600060a0868803121561071e57600080fd5b600086013567ffffffffffffffff81111561073857600080fd5b610744888289016106dc565b955050602086013567ffffffffffffffff81111561076157600080fd5b61076d888289016106dc565b945050604086013567ffffffffffffffff81111561078a57600080fd5b610796888289016106dc565b935050606086013567ffffffffffffffff8111156107b357600080fd5b6107bf888289016106dc565b925050608086013567ffffffffffffffff8111156107dc57600080fd5b6107e8888289016106dc565b9150509295509295909350565b6000610801838361090e565b905092915050565b61081281610bd0565b82525050565b61082181610bd0565b82525050565b600061083282610b24565b61083c8185610b47565b93508360208202850161084e85610b14565b8060005b8581101561088a578484038952815161086b85826107f5565b945061087683610b3a565b925060208a01995050600181019050610852565b50829750879550505050505092915050565b60006108a782610b2f565b6108b18185610b58565b93506108c1818560208601610c1b565b6108ca81610d0d565b840191505092915050565b60006108e082610b2f565b6108ea8185610b69565b93506108fa818560208601610c1b565b61090381610d0d565b840191505092915050565b600060e0830160008301516109266000860182610809565b506020830151848203602086015261093e828261089c565b91505060408301518482036040860152610958828261089c565b91505060608301518482036060860152610972828261089c565b9150506080830151848203608086015261098c828261089c565b91505060a08301516109a160a08601826109c6565b5060c083015184820360c08601526109b9828261089c565b9150508091505092915050565b6109cf81610c02565b82525050565b6109de81610c02565b82525050565b600060e0820190506109f9600083018a610818565b8181036020830152610a0b81896108d5565b90508181036040830152610a1f81886108d5565b90508181036060830152610a3381876108d5565b90508181036080830152610a4781866108d5565b9050610a5660a08301856109d5565b81810360c0830152610a6881846108d5565b905098975050505050505050565b60006020820190508181036000830152610a908184610827565b905092915050565b6000602082019050610aad60008301846109d5565b92915050565b6000604051905081810181811067ffffffffffffffff82111715610ada57610ad9610cde565b5b8060405250919050565b600067ffffffffffffffff821115610aff57610afe610cde565b5b601f19601f8301169050602081019050919050565b6000819050602082019050919050565b600081519050919050565b600081519050919050565b6000602082019050919050565b600082825260208201905092915050565b600082825260208201905092915050565b600082825260208201905092915050565b6000610b8582610c02565b9150610b9083610c02565b9250827fffffffffffffffffffffffffffffffffffffffffffffffffffffffffffffffff03821115610bc557610bc4610c80565b5b828201905092915050565b6000610bdb82610be2565b9050919050565b600073ffffffffffffffffffffffffffffffffffffffff82169050919050565b6000819050919050565b82818337600083830152505050565b60005b83811015610c39578082015181840152602081019050610c1e565b83811115610c48576000848401525b50505050565b60006002820490506001821680610c6657607f821691505b60208210811415610c7a57610c79610caf565b5b50919050565b7f4e487b7100000000000000000000000000000000000000000000000000000000600052601160045260246000fd5b7f4e487b7100000000000000000000000000000000000000000000000000000000600052602260045260246000fd5b7f4e487b7100000000000000000000000000000000000000000000000000000000600052604160045260246000fd5b6000601f19601f830116905091905056fea26469706673582212200e6aa81d70564b85d5159900f0589448f6503d1a18b5980afaf4e2789d62b1e164736f6c63430008000033",
  "linkReferences": {},
  "deployedLinkReferences": {}
}