{
  "_format": "hh-sol-artifact-1",
  "contractName": "LinkCrypt",
  "sourceName": "contracts/LinkCrypt.sol",
  "abi": [
    {
      "anonymous": false,
      "inputs": [
        {
          "indexed": false,
          "internalType": "address",
          "name": "sender",
          "type": "address"
        },
        {
          "indexed": false,
          "internalType": "string",
          "name": "link",
          "type": "string"
        },
        {
          "indexed": false,
          "internalType": "string",
          "name": "originator",
          "type": "string"
        },
        {
          "indexed": false,
          "internalType": "string",
          "name": "source",
          "type": "string"
        },
        {
          "indexed": false,
          "internalType": "string",
          "name": "message",
          "type": "string"
        },
        {
          "indexed": false,
          "internalType": "uint256",
          "name": "timestamp",
          "type": "uint256"
        },
        {
          "indexed": false,
          "internalType": "string",
          "name": "keyword",
          "type": "string"
        },
        {
          "indexed": false,
          "internalType": "string",
          "name": "slug",
          "type": "string"
        }
      ],
      "name": "Transfer",
      "type": "event"
    },
    {
      "inputs": [
        {
          "internalType": "string",
          "name": "link",
          "type": "string"
        },
        {
          "internalType": "string",
          "name": "originator",
          "type": "string"
        },
        {
          "internalType": "string",
          "name": "source",
          "type": "string"
        },
        {
          "internalType": "string",
          "name": "message",
          "type": "string"
        },
        {
          "internalType": "string",
          "name": "keyword",
          "type": "string"
        },
        {
          "internalType": "string",
          "name": "slug",
          "type": "string"
        }
      ],
      "name": "addToBlockchain",
      "outputs": [],
      "stateMutability": "nonpayable",
      "type": "function"
    },
    {
      "inputs": [],
      "name": "getAllTransactions",
      "outputs": [
        {
          "components": [
            {
              "internalType": "address",
              "name": "sender",
              "type": "address"
            },
            {
              "internalType": "string",
              "name": "link",
              "type": "string"
            },
            {
              "internalType": "string",
              "name": "originator",
              "type": "string"
            },
            {
              "internalType": "string",
              "name": "source",
              "type": "string"
            },
            {
              "internalType": "string",
              "name": "message",
              "type": "string"
            },
            {
              "internalType": "uint256",
              "name": "timestamp",
              "type": "uint256"
            },
            {
              "internalType": "string",
              "name": "keyword",
              "type": "string"
            },
            {
              "internalType": "string",
              "name": "slug",
              "type": "string"
            }
          ],
          "internalType": "struct LinkCrypt.TransferStruct[]",
          "name": "",
          "type": "tuple[]"
        }
      ],
      "stateMutability": "view",
      "type": "function"
    },
    {
      "inputs": [],
      "name": "getTransactionCount",
      "outputs": [
        {
          "internalType": "uint256",
          "name": "",
          "type": "uint256"
        }
      ],
      "stateMutability": "view",
      "type": "function"
    }
  ],
  "bytecode": "0x608060405234801561001057600080fd5b50610e69806100206000396000f3fe608060405234801561001057600080fd5b50600436106100415760003560e01c806327506f53146100465780632e7700f014610064578063f29e69ac14610082575b600080fd5b61004e61009e565b60405161005b9190610b8b565b60405180910390f35b61006c6104ca565b6040516100799190610bad565b60405180910390f35b61009c600480360381019061009791906107c0565b6104d3565b005b60606001805480602002602001604051908101604052809291908181526020016000905b828210156104c15783829060005260206000209060080201604051806101000160405290816000820160009054906101000a900473ffffffffffffffffffffffffffffffffffffffff1673ffffffffffffffffffffffffffffffffffffffff1673ffffffffffffffffffffffffffffffffffffffff16815260200160018201805461014c90610d63565b80601f016020809104026020016040519081016040528092919081815260200182805461017890610d63565b80156101c55780601f1061019a576101008083540402835291602001916101c5565b820191906000526020600020905b8154815290600101906020018083116101a857829003601f168201915b505050505081526020016002820180546101de90610d63565b80601f016020809104026020016040519081016040528092919081815260200182805461020a90610d63565b80156102575780601f1061022c57610100808354040283529160200191610257565b820191906000526020600020905b81548152906001019060200180831161023a57829003601f168201915b5050505050815260200160038201805461027090610d63565b80601f016020809104026020016040519081016040528092919081815260200182805461029c90610d63565b80156102e95780601f106102be576101008083540402835291602001916102e9565b820191906000526020600020905b8154815290600101906020018083116102cc57829003601f168201915b5050505050815260200160048201805461030290610d63565b80601f016020809104026020016040519081016040528092919081815260200182805461032e90610d63565b801561037b5780601f106103505761010080835404028352916020019161037b565b820191906000526020600020905b81548152906001019060200180831161035e57829003601f168201915b505050505081526020016005820154815260200160068201805461039e90610d63565b80601f01602080910402602001604051908101604052809291908181526020018280546103ca90610d63565b80156104175780601f106103ec57610100808354040283529160200191610417565b820191906000526020600020905b8154815290600101906020018083116103fa57829003601f168201915b5050505050815260200160078201805461043090610d63565b80601f016020809104026020016040519081016040528092919081815260200182805461045c90610d63565b80156104a95780601f1061047e576101008083540402835291602001916104a9565b820191906000526020600020905b81548152906001019060200180831161048c57829003601f168201915b505050505081525050815260200190600101906100c2565b50505050905090565b60008054905090565b60016000808282546104e59190610c8f565b9250508190555060016040518061010001604052803373ffffffffffffffffffffffffffffffffffffffff16815260200188815260200187815260200186815260200185815260200142815260200184815260200183815250908060018154018082558091505060019003906000526020600020906008020160009091909190915060008201518160000160006101000a81548173ffffffffffffffffffffffffffffffffffffffff021916908373ffffffffffffffffffffffffffffffffffffffff16021790555060208201518160010190805190602001906105ca9291906106b5565b5060408201518160020190805190602001906105e79291906106b5565b5060608201518160030190805190602001906106049291906106b5565b5060808201518160040190805190602001906106219291906106b5565b5060a0820151816005015560c08201518160060190805190602001906106489291906106b5565b5060e08201518160070190805190602001906106659291906106b5565b5050507fad5c48db701ac8c9cfb07b8f99ea85c22d3a8131c0de3e88e120e519a59af10533878787874288886040516106a5989796959493929190610ae3565b60405180910390a1505050505050565b8280546106c190610d63565b90600052602060002090601f0160209004810192826106e3576000855561072a565b82601f106106fc57805160ff191683800117855561072a565b8280016001018555821561072a579182015b8281111561072957825182559160200191906001019061070e565b5b509050610737919061073b565b5090565b5b8082111561075457600081600090555060010161073c565b5090565b600061076b61076684610bf9565b610bc8565b90508281526020810184848401111561078357600080fd5b61078e848285610d21565b509392505050565b600082601f8301126107a757600080fd5b81356107b7848260208601610758565b91505092915050565b60008060008060008060c087890312156107d957600080fd5b600087013567ffffffffffffffff8111156107f357600080fd5b6107ff89828a01610796565b965050602087013567ffffffffffffffff81111561081c57600080fd5b61082889828a01610796565b955050604087013567ffffffffffffffff81111561084557600080fd5b61085189828a01610796565b945050606087013567ffffffffffffffff81111561086e57600080fd5b61087a89828a01610796565b935050608087013567ffffffffffffffff81111561089757600080fd5b6108a389828a01610796565b92505060a087013567ffffffffffffffff8111156108c057600080fd5b6108cc89828a01610796565b9150509295509295509295565b60006108e583836109f2565b905092915050565b6108f681610ce5565b82525050565b61090581610ce5565b82525050565b600061091682610c39565b6109208185610c5c565b93508360208202850161093285610c29565b8060005b8581101561096e578484038952815161094f85826108d9565b945061095a83610c4f565b925060208a01995050600181019050610936565b50829750879550505050505092915050565b600061098b82610c44565b6109958185610c6d565b93506109a5818560208601610d30565b6109ae81610e22565b840191505092915050565b60006109c482610c44565b6109ce8185610c7e565b93506109de818560208601610d30565b6109e781610e22565b840191505092915050565b600061010083016000830151610a0b60008601826108ed565b5060208301518482036020860152610a238282610980565b91505060408301518482036040860152610a3d8282610980565b91505060608301518482036060860152610a578282610980565b91505060808301518482036080860152610a718282610980565b91505060a0830151610a8660a0860182610ac5565b5060c083015184820360c0860152610a9e8282610980565b91505060e083015184820360e0860152610ab88282610980565b9150508091505092915050565b610ace81610d17565b82525050565b610add81610d17565b82525050565b600061010082019050610af9600083018b6108fc565b8181036020830152610b0b818a6109b9565b90508181036040830152610b1f81896109b9565b90508181036060830152610b3381886109b9565b90508181036080830152610b4781876109b9565b9050610b5660a0830186610ad4565b81810360c0830152610b6881856109b9565b905081810360e0830152610b7c81846109b9565b90509998505050505050505050565b60006020820190508181036000830152610ba5818461090b565b905092915050565b6000602082019050610bc26000830184610ad4565b92915050565b6000604051905081810181811067ffffffffffffffff82111715610bef57610bee610df3565b5b8060405250919050565b600067ffffffffffffffff821115610c1457610c13610df3565b5b601f19601f8301169050602081019050919050565b6000819050602082019050919050565b600081519050919050565b600081519050919050565b6000602082019050919050565b600082825260208201905092915050565b600082825260208201905092915050565b600082825260208201905092915050565b6000610c9a82610d17565b9150610ca583610d17565b9250827fffffffffffffffffffffffffffffffffffffffffffffffffffffffffffffffff03821115610cda57610cd9610d95565b5b828201905092915050565b6000610cf082610cf7565b9050919050565b600073ffffffffffffffffffffffffffffffffffffffff82169050919050565b6000819050919050565b82818337600083830152505050565b60005b83811015610d4e578082015181840152602081019050610d33565b83811115610d5d576000848401525b50505050565b60006002820490506001821680610d7b57607f821691505b60208210811415610d8f57610d8e610dc4565b5b50919050565b7f4e487b7100000000000000000000000000000000000000000000000000000000600052601160045260246000fd5b7f4e487b7100000000000000000000000000000000000000000000000000000000600052602260045260246000fd5b7f4e487b7100000000000000000000000000000000000000000000000000000000600052604160045260246000fd5b6000601f19601f830116905091905056fea26469706673582212205d3931ea9478fba692dac80c524ddff0d0a69e42f362b0df3a636170b44f5f9f64736f6c63430008000033",
  "linkReferences": {},
  "deployedLinkReferences": {}
}